:020000040800F2
:1000000058040020AD010008CB1400089711000827
:10001000C91400085B0700089516000800000000DE
:10002000000000000000000000000000351500087E
:100030005D07000800000000CD1400083715000817
:10004000C7010008C7010008C7010008C701000870
:10005000C7010008C7010008C7010008C701000860
:10006000C7010008C7010008C7010008C701000850
:10007000C7010008C7010008C7010008C701000840
:10008000C7010008C7010008C70100080000000000
:10009000000000000000000000000000C701000890
:1000A000C7010008F1150008C7010008C7010008D2
:1000B000C7010008C7010008C7010008C701000800
:1000C000C7010008C7010008C7010008C7010008F0
:1000D000C7010008C7010008C701000800000000B0
:1000E000C7010008C7010008C701000800000000A0
:1000F000000000000000000000000000C701000830
:1001000000000000C7010008C7010008C70100087F
:1001100000000000000000000000000000000000DF
:10012000C7010008C7010008C7010008C70100088F
:10013000C7010008000000000000000000000000EF
:10014000000000000000000000000000C7010008DF
:10015000C7010008C7010008C7010008C70100085F
:10016000C7010008C70100080000000000000000EF
:10017000000000000000000000000000000000007F
:1001800000000000C701000800000000000000009F
:10019000C7010008DFF810D000F05EFA0048004701
:1001A000951F0008AFF300805804002006488047E0
:1001B00006480047FEE7FEE7FEE7FEE7FEE7FEE74C
:1001C000FEE7FEE7FEE7FEE7D5150008950100080B
:1001D0002DE9F05F0546002092469B46884606467C
:1001E000814640241BE0284641464746224600F00F
:1001F0006AF853465A46C01A914110D31146184620
:10020000224600F051F82D1A67EB01084F462246AE
:100210000120002100F048F817EB00094E41201E94
:10022000A4F10104DFDC484631462A464346BDE8D6
:10023000F09FD2B201E000F8012B491EFBD27047BB
:100240000022F6E710B513460A4604461946FFF7A2
:10025000F0FF204610BD00F0004230F000400AD010
:10026000C10D01F56071C0F3160042EA0151C208E8
:1002700040071143704700200146704730B50B46D8
:10028000014600202022012409E021FA02F59D42C6
:1002900005D303FA02F5491B04FA02F52844151E9A
:1002A000A2F10102F1DC30BD202A04DB203A00FA81
:1002B00002F1002070479140C2F1200320FA03F3BD
:1002C000194390407047202A04DB203A21FA02F0BB
:1002D0000021704721FA02F3D040C2F12002914080
:1002E0000843194670472DE9FE4F804681EA030016
:1002F000C00F0C46009021F0004123F00045B8EB00
:100300000200A94105D24046214690461C460B46B4
:10031000024623F00040104347D0270DC7F30A00E0
:10032000C3F30A510290401A019040286BDAC3F3DC
:10033000130040F4801B0098924620B10023D2EBBA
:10034000030A63EB0B0B01985946C0F1400250467B
:10035000FFF7AAFF06460D4650465946019A00F09F
:100360008DF910EB08006141002487EA115284EAFC
:10037000E7731A4340D0009A62B3019A012A4FEA08
:10038000075215DC001B61EB02014FF0004202EA4C
:100390000752CDE90042001C41F5801132462B4640
:1003A00000F08DF903B0BDE8F08F40462146F9E733
:1003B000001B61EB0201001C41F5801300185B413A
:1003C0002018A2F5001747EB030140EAD570B619D3
:1003D0006D4111E06D084FEA360645EAC0754FEAF7
:1003E0000752001B61EB0201001C41F58011490816
:1003F0004FEA30000019514132462B4603B0BDE8A8
:10040000F04F00F04DB90098012240000023D0EBDE
:10041000020263EBE073009821464FEAE074B8EB08
:10042000000061EB0401E9E783F000435BE781F042
:10043000004158E72DE9FE4F81EA030404F000442F
:1004400021F0004100944FF0000B23F0004350EAEC
:1004500001045ED052EA03045BD0C3F30A54C1F333
:100460000A552C44A4F2F3340194A0FB0254C1F3C6
:10047000130141F48011C3F3130343F4801301FB10
:10048000024400FB034E840A970A44EA815447EA77
:100490008357A4FB076802958D0A05FB07854FEA81
:1004A000932C04FB0C542705029D4FEA065847EA9B
:1004B0001637B5EB08056EEB070C870E920E47EA70
:1004C000811742EA8312A7FB0201B6EB0B0164EB32
:1004D00000042B0D43EA0C335E1844EB1C50DA4643
:1004E0005146E7FB0201C5F313044FEA0B3343EA1D
:1004F00014534FEA0432019C43EA0603A4F10C04AE
:100500000294009CCDE900B400F0D9F803B0BDE836
:10051000F08F00200146F9E72DE9F04D81EA030450
:1005200004F0004B21F0004514464FF0000A23F080
:10053000004150EA050220D054EA01021DD0C5F363
:100540000A570246C5F31303C1F31300C1F30A5659
:1005500040F4801543F48013A7EB0608101BD64621
:1005600008F2FD3873EB050002D308F1010801E041
:1005700092185B41B8F1000F03DA00200146BDE894
:10058000F08D00204FF48011064684460EE0171BC4
:1005900073EB050705D3121B63EB050306434CEA17
:1005A000010C49084FEA300092185B4150EA0107FC
:1005B000EDD152EA030012D082EA040083EA050179
:1005C000084305D0101BAB4106D20122002306E0F0
:1005D00000224FF0004302E06FF0010253101AEBCB
:1005E00006004CEB085110EB0A0041EB0B01BDE893
:1005F000F04D00F055B8C1F30A52C1F3130140F2B7
:10060000FF3341F480119A4202DA0020014670471C
:1006100040F233439A42A2F2334202DC5242FFF7E5
:1006200052BEFFF741BE000030B5041E71F1000458
:1006300004DB4FF00044404264EB0101141E73F1EF
:10064000000405DB1C464FF00043524263EB0403F9
:10065000994208BF904230BD064C074D06E0E06865
:1006600040F0010394E8070098471034AC42F6D3F9
:10067000FFF794FD88200008A8200008202A06DB48
:10068000CB17203A41FA02F043EAE07306E041FA60
:1006900002F3D040C2F1200291400843194670474E
:1006A00010B5141E73F1000408DA401C41F100017A
:1006B00092185B411A4301D120F0010010BD2DE9D1
:1006C000F04D92469B4611B1B1FA81F202E0B0FAC8
:1006D00080F220329046FFF7E7FD04460F4640EADD
:1006E0000A0041EA0B0153465A46084313D011460B
:1006F00053EA010019D0C8F140025046FFF7E3FD6C
:1007000005460E46504659464246FFF7CDFD084382
:1007100005D0012004E020463946BDE8F08D0020D8
:10072000054346EAE0762C4337430A986305E40A1A
:10073000A0EB08000022FD0A44EA47540A3002D523
:1007400000200146E9E7010510196941DDE9084586
:1007500000196941BDE8F04DA2E7FEE7704772B6A7
:10076000FEE7000070B5044600F0E2F80546601CA4
:1007700002D004480078044400F0DAF8401BA0429C
:10078000FAD370BD080000202DE9F84F00224FF089
:10079000010803254FF00F0E0B6808FA02F42340FE
:1007A000A34271D14E68012E05D0022E03D0112E26
:1007B00001D0122E15D18668570005FA07FC26EAEB
:1007C0000C06D1F80CC00CFA07FC4CEA060CC0F879
:1007D00008C04668A6430C79C4F30014944034431F
:1007E0004460C668570005FA07FC8C6826EA0C06C8
:1007F000BC403443C4604C68022C01D0122C13D18D
:10080000D40800EB8404A346D4F8209054074FEAA0
:10081000D46A0EFA0AF629EA06090E6906FA0AF6F9
:1008200046EA0906CBF8206004680E7924EA0C0435
:1008300006F00306BE40264306604C68E40056D529
:100840002E4C266846F480462660246822F0030673
:1008500004F4804400942A4C3444A446D4F8084854
:100860009607370F0EFA07F6B443264EB04201D171
:10087000002615E0244EB04201D1012610E0234E9F
:10088000B04202D102260BE031E0214EB04201D14C
:10089000032605E01F4EB04201D1042600E00726E2
:1008A000BE402643CCF808681B4E34684F689C4312
:1008B000FF0300D51C433460174E361D34684F6863
:1008C0009C43BF0300D51C433460134E0836346884
:1008D0004F689C43FF0200D51C4334600E4E0C361B
:1008E00034684F689C43BF0200D51C433460521CDF
:1008F000102AFFF451AFBDE8F88F000044380240E1
:1009000000300140000002400004024000080240A4
:10091000000C024000100240003C01400069084009
:1009200000D0012070470AB1816170470904FBE7DC
:100930000148806870470000080000200248816874
:100940000278114481607047080000200B4810B500
:10095000016841F400710160016841F48061016047
:10096000016841F480710160032000F071F80020FB
:1009700000F006F800F024F8002010BD003C024012
:1009800070B50D4D04464FF47A712878B1FBF0F044
:100990000A490968B1FBF0F000F0E4FA48B9102CFC
:1009A00007D200222146501E00F032F800206C6071
:1009B00070BD012070BD0000080000201400002060
:1009C0000B4882B0016841F480410160006800F486
:1009D000804000900648001F016841F0805101608E
:1009E000006800F080500090072002B000F030B89E
:1009F00044380240002809DB00F01F020121914029
:100A00004009800000F1E020C0F8001170470000AC
:100A1000F0B40E4B1B680C46C3F30223C3F1070569
:100A2000042D00D90425191D072901D2002300E057
:100A3000DB1E012606FA05F1491E214099409E4021
:100A4000761E16403143F0BC00F03ABE0CED00E0DB
:100A5000064900F0070208684FF6FF03184040EA15
:100A60000220034A10430860704700000CED00E0CC
:100A70000000FA052DE9F0470E46050065D0DFF8C5
:100A80001481D8F80000F7B200F00F00B04207D28E
:100A900088F80070D8F8000000F00F00B04254D180
:100AA00028683D4C810712D5400703D5206840F4E3
:100AB000E05020602878000703D5206840F46040AB
:100AC00020602068A96820F0F000084320602878A2
:100AD000C0072DD0304968680839012812D0022893
:100AE00013D0032811D00968890700292DDA21685D
:100AF00021F0030101432160FFF71AFF814641F213
:100B0000883A0EE009688903EFE709688901ECE794
:100B1000FFF70EFFA0EB0901514502D90320BDE804
:100B2000F0872068696800F00C00B0EB810FEFD10E
:100B3000D8F80010404601F00F01B14207D9077004
:100B4000006800F00F00B04201D00120E7E72878EC
:100B5000400705D52068E96820F4E050084320608C
:100B60002878000706D52068296920F4604040EA0B
:100B7000C100206000F018F82168084AC1F3031191
:100B8000515CC8400649086006480068FFF7F8FE57
:100B90000020C4E7003C02400838024078200008EA
:100BA000140000200C000020154810B5006810F05B
:100BB0000C02144813D04110042A0FD0082A0ED179
:100BC0000F4C241F2268236802F03F025B0207D506
:100BD0002068C0F38810A0FB010106E0084610BDA4
:100BE0002168C1F38811A1FB00010023FFF7F0FA8F
:100BF0002168C1F30141491C4900B0FBF1F010BD6F
:100C0000083802400024F4002DE9F84F04006ED0AB
:100C10002078DFF83C93C007A9F104054AD009F118
:100C200004000168C1F38101012908D00068C0F304
:100C3000810002280AD1D9F80000400206D52868B0
:100C4000800337D560680028E1D033E06068B0F5F4
:100C5000803F10D0B0F5A02F286810D020F480304D
:100C60002860286820F4802028606068A8B1FFF719
:100C70005FFE06460DE0286840F48030F4E740F45B
:100C800080202860F7E700BFFFF752FE801B642832
:100C900073D828688003F7D50CE0FFF749FE0646B5
:100CA00005E000BFFFF744FE801B6428F0D82868E9
:100CB0008003F7D42078DFF89C8280074FF0000A89
:100CC0003ED5A348001D016811F00C0F08D0006844
:100CD000C0F3810002280BD1D9F80000400207D4EC
:100CE0002868800716D5E068012800D112E02BE1C2
:100CF000E068B8B10120C8F80000FFF719FE064609
:100D000005E000BFFFF714FE801B0228C0D828684A
:100D10008007F7D52868216920F0F80040EAC10073
:100D200028600DE0C8F800A0FFF702FE064604E0C8
:100D3000FFF7FEFD801B02281FD828688007F7D424
:100D40002078000722D5824E83486169703671B1E0
:100D500001210160FFF7ECFD074604E0FFF7E8FD25
:100D6000C01B022809D830688007F7D50EE0C0F80C
:100D700000A0FFF7DDFD074605E082E0FFF7D8FDA4
:100D8000C01B02287DD830688007F7D42078400740
:100D900068D5DFF8BCB100270BF13C0BDBF8000095
:100DA000C0000BD4DBF8001041F08051CBF80010EC
:100DB000DBF80000012700F080500090674E30689B
:100DC000C00510D4306840F480703060FFF7B0FD8B
:100DD000009005E0FFF7ACFD0099401A022850D8BA
:100DE0003068C005F6D55A4EA0686C3601280FD081
:100DF0000528306810D020F001003060306820F005
:100E000004003060A068B8B1FFF792FD00900FE0D9
:100E1000306840F00100F4E740F004003060F7E78C
:100E2000FFF786FD0099411A41F28830814266D869
:100E300030688007F4D50EE0FFF77AFD009007E0F8
:100E4000FFF776FD0099411A41F28830814256D869
:100E500030688007F4D42FB1DBF8001021F0805106
:100E6000CBF80010A069C8B33949091D0968C1F35E
:100E7000810102294AD00228504607D0C8F86000F4
:100E800000E03CE0FFF754FD04463BE04746C8F86D
:100E90006000FFF74DFD064605E000BFFFF748FD87
:100EA000801B02282BD828688001F7D4D4E90701D9
:100EB0000843A16A2A4A490802EB0141626A41EAF1
:100EC0008211084394F82C1040EA0161C9F800101F
:100ED00001203866FFF72CFD044606E036E000BF2F
:100EE000FFF726FD001B022809D828688001F7D5E6
:100EF0002CE000BFFFF71CFD001B022802D90320D5
:100F0000BDE8F88F28688001F4D41FE00128F7D0ED
:100F1000D9F80000E26900F48001914214D1226AFC
:100F200000F03F0191420FD147F6C071626A014063
:100F3000914209D1A26A00F44031914204D1E16AA0
:100F400000F07060884201D00120D9E70020D7E787
:100F50000438024000004742800E474200700040C3
:100F60000000FFFF10B5401EB0F1807F01D30120CB
:100F700010BD4FF0E02460610F21601700F0A0FB6E
:100F80000020A06107202061002010BD704770473D
:100F900010B5040003D094F83D0010B107E0012023
:100FA00010BD002084F83C00204600F00DF802201F
:100FB00084F83D00211D206800F020FB012084F80A
:100FC0003D00002010BD000008B500680B498842B4
:100FD00012D10B48016841F4003101600068002221
:100FE00000F40030009011461920FFF711FDBDE814
:100FF00008401920FFF7FEBC08BD00000044014076
:10100000443802400168CA6842F00102CA600068C0
:10101000816801F00701062903D0016841F0010150
:10102000016000207047704770B504460068016990
:101030004FF00005C943890715D4C168C943890722
:1010400011D4E91E016101202077206880698007A2
:10105000204602D0FFF7E7FF04E000F098F82046B2
:1010600000F096F8257720680169C943490717D42D
:10107000C168C943490713D46FF00401016102201C
:1010800020772068806910F4407F204602D0FFF767
:10109000CAFF04E000F07BF8204600F079F82577DD
:1010A00020680169C943090716D4C168C943090703
:1010B00012D46FF008010161042020772068C06914
:1010C0008007204602D0FFF7AEFF04E000F05FF893
:1010D000204600F05DF8257720680169C943C906FC
:1010E00017D4C168C943C90613D46FF01001016158
:1010F000082020772068C06910F4407F204602D085
:10110000FFF791FF04E000F042F8204600F040F8BD
:10111000257720680169C943C90708D1C168C94357
:10112000C90704D1891E0161204600F032F8206809
:101130000169C943090609D4C168C943090605D430
:101140006FF0800101612046FFF720FF20680169F0
:10115000C943490609D4C168C943490605D46FF09B
:1011600040010161204600F015F820680169C9437B
:1011700089060BD4C168C943890607D46FF02001E2
:1011800001612046BDE87040FFF701BF70BD7047A8
:10119000704770477047FEE710B5002000F008F870
:1011A000012000F005F8BDE810400220FFF7DABA90
:1011B00070B50E4C0546002280212046FFF7B3FB98
:1011C000284600F015F8012240212046FFF7ABFB2E
:1011D0000220FFF7C7FA002240212046FFF7A3FBB9
:1011E000BDE870400220FFF7BDBA000000000240D9
:1011F00070B50446154DC0074FF4807101D001222F
:1012000000E000222846FFF78EFBA0074FF4007194
:1012100001D5012200E000222846FFF784FB600789
:101220004FF4806101D5012200E000222846FFF73B
:101230007AFB20074FF4006101D5012200E0002273
:101240002846BDE87040FFF76EBB0000000002407A
:1012500030B587B014216846FEF7F2FF0220FFF791
:1012600081FA38480024016841F0010101600068FA
:10127000354D00F00100059022464FF4807128465C
:10128000FFF751FB002269152846FFF74CFB0022AF
:1012900029152846FFF747FB0022E9142846FFF7E7
:1012A00042FB002280212846FFF73DFB002240211F
:1012B0002846FFF738FB4FF47C6000900120CDE911
:1012C0000104694628460394FFF75EFA0022802154
:1012D0002846FFF728FB002240212846FFF723FB82
:1012E0000020FFF785FF0220FFF73CFA3020FFF7D0
:1012F0005FFF0220FFF736FA3020FFF759FF022088
:10130000FFF730FA3020FFF753FF0220FFF750FFBE
:101310000220FFF74DFF0820FFF74AFF0020FFF7EC
:1013200047FF0C20FFF744FF0020FFF741FF062096
:10133000FFF73EFF0020FFF73BFF0120FFF738FFDC
:1013400007B030BD303802400000024010B501281F
:1013500002D0022802D00CE07F3100E0BF31C8B2D9
:10136000010900F00F040846FFF722FF2046FFF7AF
:101370001FFFBDE810400220FFF7F4B970B51B4D08
:1013800000F00F040646012280212846FFF7CBFA21
:101390000220FFF7E7F90F2000EA1610FFF728FFF9
:1013A000012240212846FFF7BEFA0220FFF7DAF9B2
:1013B000002240212846FFF7B6FA0220FFF7D2F9B3
:1013C0002046FFF715FF012240212846FFF7ABFA20
:1013D0000220FFF7C7F9002240212846FFF7A3FAB1
:1013E000BDE870400220FFF7BDB9000000000240D8
:1013F00070B50546002402E0FFF7C0FF641C285DBD
:101400000028F9D170BD000070B586B0142168467F
:10141000FEF716FF1B480024016841F0040101603B
:10142000016801F004010591016841F001010160CA
:101430000068154E00F001004FF4FF55059022465C
:1014400029463046FFF76FFA4FF4005000900F48DE
:10145000CDE9010469460E48FFF796F90120009591
:10146000CDE90104694630460394FFF78DF94FF446
:101470000040CDE90004694630460294FFF784F944
:1014800006B070BD3038024000000240000021105C
:10149000000802400B4810B5094901605321416022
:1014A00000214FF6FF72C0E9021201618161FFF76E
:1014B0006FFD002803D0BDE81040FFF750B910BD04
:1014C0000044014018000020FEE7FEE770470000DE
:1014D00070B5174C4FF48055002229462046FFF77F
:1014E00022FA0120FFF73EF9012229462046FFF7A4
:1014F0001AFA0A2000F0B4FD002229462046FFF720
:1015000012FAED0029462046FFF708FA0028F9D024
:1015100003E00120761C00F0A3FD29462046FFF7DA
:10152000FDF90028F5D13C20FFF71CF9304670BDCD
:10153000000002407047FFF701BA000030B593B0D9
:1015400030216846FEF77CFE14210CA8FEF778FED9
:101550001E480024016841F080510160006800F0DD
:10156000805011901A48016821F4404141F4004133
:1015700001600068022500F44040119001200390B2
:101580001020009506950490CDE907404FF4A8700F
:10159000099004200A9007200B906846FFF734FB5F
:1015A00008B172B6FEE70F20CDE90C054FF480506C
:1015B000CDE90E4002210CA81094FFF75BFA002839
:1015C00001D072B6FEE713B030BD000040380240D3
:1015D000007000400548016841F470010160034952
:1015E0004FF00060803908607047000088ED00E02F
:1015F0000148FFF719BD000018000020F0B502688F
:101600001D4B1E4C9F031E4D1E4E984207D0B842E4
:1016100005D0A04203D0A84201D0B04204D122F0AC
:10162000700C4A6842EA0C02984210D0B8420ED0C0
:10163000A0420CD0A8420AD0B04208D0124CA0421E
:1016400005D0124CA04202D0114CA04203D122F48A
:101650004074CA6822434C6922F08002224302602F
:101660008A68C2620A688262984201D1096901638C
:1016700001214161F0BD0000000001400004004074
:1016800000080040000C00400040014000440140C0
:1016900000480140FEE700000FB4084B10B504A954
:1016A00002AA039800F0EEF8044602A9002000F018
:1016B0006CFC204610BC5DF814FB00008B1F00087A
:1016C0000907090E002804DB00F1E02080F800146F
:1016D000704700F00F0000F1E02080F8141D704703
:1016E00002E008C8121F08C1002AFAD170477047EB
:1016F000002001E001C1121F002AFBD17047000049
:101700002DE9FF5F82B00021DDE90430020DDDF834
:1017100040B0034318D044F61050A2F2FF324243C7
:101720001514119801281FD0A5EB0B00401C5FEA8F
:10173000000A4FF000064E4FDFF83891B046504691
:1017400015D5CAF1000413E0119801244AA3012819
:1017500001D16FEA0B010298119AC0E90031C0E98A
:10176000024206B0BDE8F09FCBF10000DFE704467F
:101770000021404A491842EB0450CDE9001012E024
:10178000E00707D032463B4640464946FEF752FE48
:101790008046894632463B4610461946FEF74AFEC9
:1017A00006460F466410002CEAD1DDE90401DDE9AC
:1017B0000023BAF1000F06DAFEF73CFE42464B4624
:1017C000FEF738FE05E0FEF7A7FE42464B46FEF761
:1017D000A3FE04460E460022284BFEF725FF03D841
:1017E0004FF0FF30014607E00022254B20463146EE
:1017F000FEF779FDFEF7FFFE102409E0002C0ADB5E
:101800000A220023FEF7E4FC039B30321A55641EC3
:1018100050EA0102F2D1641C039AC4F1110314448A
:10182000119A012A03D0012208430DD10AE008438E
:1018300004D000204FF0110B119072E7A3EB0B05C1
:101840006D1E0DE05B4504DD4FF0000205F1010562
:1018500004E003DA4FF00002A5F10105002AECD004
:1018600002981199C0E90231C0E9004579E700000A
:10187000000014400000F03F300000000000F04382
:101880000000E03F2DE9FF4F95B09A468846064696
:101890000025EEE1252877D100242746F94A0121C9
:1018A000039400E0044316F8013F203B01FA03F0E3
:1018B0001042F7D130782A2811D06FF02F033078FA
:1018C000A0F13002092A16D8039A44F0020402EB70
:1018D000820203EB42021044761C0390EFE758F8B3
:1018E000042B0392002A03DA504244F4005403907C
:1018F00044F00204761C30782E2816D116F8010F19
:1019000044F004042A280DD06FF02F023078A0F1A3
:101910003003092B09D807EB870302EB4303C718F1
:10192000761CF3E758F8047B761C30786C280FD0CF
:1019300006DC4C2817D068280DD06A2814D104E0A2
:10194000742810D07A280FD10DE044F400140AE076
:1019500044F4801401E044F440147278824202D1CD
:1019600004F58014761C761C307866280BD013DCC6
:10197000582877D009DC002875D04528F6D04628AD
:10198000F4D047281AD193E118E0632835D06428B1
:1019900079D0652812D18BE1702873D008DC6728D4
:1019A000F1D069286FD06E280DD06F2806D1ACE039
:1019B00073282CD0752874D0782853D052461799A4
:1019C00090476D1C54E1C4F30250022809D003284B
:1019D0000DD0D8F8001004280DD00D6008F10408CF
:1019E00046E1D8F80010EA17C1E90052F6E7D8F846
:1019F00000100D80F2E70D70F0E718F8041B8DF869
:101A0000001000208DF80100EB46012003E058F89B
:101A100004BB4FF0FF3061074FF0000102D40DE02E
:101A200009F101018946B9420FDA8145F8DB1BF85B
:101A300009100029F4D108E009F101018946814229
:101A4000FADB1BF809100029F6D103985346A0EBE6
:101A5000090721463846179A00F080FA284400EB1F
:101A6000090507E044E008E10DE01BF8010B5246D0
:101A700017999047B9F10109F7D2534621463846E4
:101A8000179AF2E039E00A21C4F302524FF0000B3A
:101A90000091022A06D058F8040BC117032A09D076
:101AA0000AE023E008F1070020F00702F2E8020153
:101AB000904605E000B2C117042A01D140B2C11717
:101AC000002906DA0A460021404261EB02012D227C
:101AD00002E0220504D52B228DF80420012203E028
:101AE000E20701D02022F7E7914657E00A2100E003
:101AF00010214FF0000B00910BE010214FF0000B74
:101B000044F004040827009103E008204FF0000B84
:101B10000090C4F30252022A05D058F8040B0021A9
:101B2000032A08D008E008F1070020F00702F2E8D5
:101B30000201904603E080B2042A00D1C0B24FF007
:101B4000000922072AD53278702A07D0DDF800C0B4
:101B50008CF0100C5CEA0B0C05D00EE040228DF8E6
:101B60000420012208E050EA010306D030238DF85A
:101B700004308DF8052002229146009B83F0080373
:101B800053EA0B030AD150EA010201D1620705D5DD
:101B900030228DF804204FF001097F1E3278582A38
:101BA00004D039A20C920CAA02920BE03BA2F9E7F6
:101BB0005B46009AFEF70CFB0C9B9B5C029A521E44
:101BC0000292137050EA0102F2D1029804A9081A95
:101BD00000F1200B600702D524F4803400E00127D7
:101BE0005F4502DDA7EB0B0000E0002000EB0B01DE
:101BF000009003984944401A0390E00306D45346EA
:101C00002146179A039800F0A9F90544002706E039
:101C100001A85246C05D179990476D1C7F1C4F4527
:101C2000F6DBE0030CD553462146179A039800F0E3
:101C300095F9054404E030205246179990476D1CF1
:101C40000099481E00900029F5DC08E002980299EE
:101C500052460078491C0291179990476D1CBBF1C0
:101C60000001ABF1010BF1DC5BE100F065F905442B
:101C7000761C307800287FF40DAE19B02846BDE8F8
:101C8000F08F000009280100303132333435363707
:101C900038396162636465660000000030313233B8
:101CA0003435363738394142434445460000000058
:101CB000600700D4062708F1070020F00700F0E8CD
:101CC0000223804603F0004C5FEA0C0001D097A08D
:101CD00009E0200501D596A005E0E00701D095A018
:101CE00001E0AFF24C001390307823F000436528F8
:101CF0000CD006DC452809D046281DD047287FD1C6
:101D00003BE0662818D067287AD136E00021112FF1
:101D100001DB112000E0781CCDE9000104A90CA82A
:101D2000FFF7EEFCDDE90D010C9A4FF0000B07F117
:101D30000109109200914EE04FF000400097CDE96C
:101D4000011004A90CA8FFF7DBFCDDE90D020C9BD8
:101D50000F994FF0000B91461093009211B9791C26
:101D600000EB0109B7EB090003D4C0F1FF3B07F119
:101D70000109A9EB0700019042E0012F00DA0127D9
:101D80000021112F01DD112000E03846CDE90001CE
:101D900004A90CA8FFF7B4FCDDE90D010C9A009131
:101DA0004FF0000BB946109221070FD4009A4A4514
:101DB00003DA914601E0A9F10109B9F1010F05DD4E
:101DC000109AA9F10101515C3029F4D0B84202DA2D
:101DD00010F1040F03DA0121CDE9011010E0002811
:101DE00003DC8344A9EB000102E0411C494500DD0E
:101DF0008946A0EB0B00401C01904FF00040029080
:101E0000200705D40198484502DB4FF0FF300190D0
:101E100000208DF84B0002980DF14B07B0F1004FF8
:101E200025D002200C902B200D90029800280CDA6F
:101E3000404202902D200D9007E00A210298FEF703
:101E40001DFA3031029007F8011D0C99481E0C90C4
:101E50000029F2DC02980028EFD1791E0D98087055
:101E6000307800F0200040F0450007F8020D11A87E
:101E7000C01BC01D02901398007800B1012000EB38
:101E80000901019801EBE071029801440398401A9E
:101E9000401E0390E00306D453462146179A039848
:101EA00000F05CF805441398007818B15246179971
:101EB00090476D1CE00323D553462146179A03989B
:101EC00000F04CF805441BE0BBF1000F07DB009865
:101ED000584504DD1098179910F80B0001E0179988
:101EE00030205246904701980BF1010B401E05F13E
:101EF0000105019004D12E205246179990476D1C80
:101F0000B9F10001A9F10109DEDC05E017F8010BC8
:101F10005246179990476D1C0299481E029000295D
:101F2000F4DC53462146179A03989EE62D000000E4
:101F30002B000000200000002DE9F04104460025A0
:101F40001E461746880404D405E039462020B047D1
:101F50006D1C641EF9D52846BDE8F0812DE9F041DD
:101F6000044600251E469046C80301D5302700E0F0
:101F70002027880404D505E041463846B0476D1C4B
:101F8000641EF9D52846BDE8F0810A68531C0B6031
:101F9000107070472DED028B9AB0FEF7D7FCFFF75B
:101FA000CDFAFFF731FAFFF775FA2448FFF72AF860
:101FB000234C00209FED230A206084ED010A4FF49A
:101FC000FA70FEF7CFFBFFF743F96420FEF7CAFB78
:101FD000FFF7E2F80A20FEF7C5FB01210846FFF7EC
:101FE000B5F919A0FFF704FA9FED1A8AFFF770FA06
:101FF00020601420FEF7B6FB94ED000AF8EE400ACC
:1020000080EE880A84ED010A10EE100AFEF723F92B
:1020100041EC100B10A153EC102B6846FFF73CFB72
:102020000120FEF79FFB01210220FFF78FF901201D
:10203000FEF798FB6846FFF7DBF9D7E718000020AA
:10204000000000200000000044697374616E636545
:102050003A00000000006842252E326620636D00C1
:10206000044900220B685A6209684A6A8242FCD31A
:102070007047000018000020000000000000000071
:102080000102030406070809A82000080000002038
:1020900018000000E0160008C0200008180000200A
:1020A00040040000F01600080000000000000000DE
:1020B0000100000010000000000000000024F400F7
:040000050800019559
:00000001FF
